{
  "hex": "01000000094c03eba7697d7a7b154dd13c951f68f214283b7db63643856e58e4bef00ae5a1000000006b48304502204568f92392d581c77bc7046187b120c951720e13c38232c965a6d24356d180b1022100933a6f6814c3195f8b088caac1844ce25cf18945ae41a2c337cc46fc9580e96501210319242444ce4326aa999a007f5ef5607988c612d3ac2c64ed195119de9d872ecdffffffff29131a45ef4cd0523df7a7ed4077a9aba56201a7fc632db42a2187c762a7d7c5000000006b48304502205b170e3345f762317d9fb37c47a3f5d65ac04171ac447fb8ef1fd6860d510a27022100e283fd90daf6161128df6feb0e7cf98aa1a202770bcb2b66ce340198731d0b7c01210319242444ce4326aa999a007f5ef5607988c612d3ac2c64ed195119de9d872ecdffffffff54cfabb2e073580a268b35d67a18b6dd3d008902a105a32923b86a574e62c212020000006a473044022072a48973bb465c97d508a23c51fcf4e058bab5be63c2d905a0f8f011c620616a022076c32eca5693e7f2b07ef20e1d02706ecc4161ba8a3a4ea96e202175b9fc790901210319242444ce4326aa999a007f5ef5607988c612d3ac2c64ed195119de9d872ecdffffffff136fbac22006e7f22095405e37710504b184c26ca9515ac23413df3a541dca3c020000006a4730440220089dbb5fd6fe46f93686f783a981d8317b6d7c0352419ff0a763741f296bbb8b022078d57445d2150789f96eee9697b06569d861b1ca789b9fd3bb69dde73e1daec301210319242444ce4326aa999a007f5ef5607988c612d3ac2c64ed195119de9d872ecdffffffff20bdb8bbddac30e21cb5e36a4ee1632abc55e4ff3cd56a5f70758a605d6bd23d000000006b48304502200d8251350ceaf233cca02427373b91c4452bda24c03ea7b599cf5285f70dd0db022100f0469a37bb220f22ecef10ae71c09244fb783caaa6f991b168357cb5485893a101210319242444ce4326aa999a007f5ef5607988c612d3ac2c64ed195119de9d872ecdffffffff5dd353577d10a7bfd7a6564993fce93de6abc136b7f249229b09bfd8e19a92b2000000006c4930460221008cbed25f10a33ffa4d99b02e60393e876fe4decf9af6cf20ceaad68bc8cf9bde022100bef30eeed8c96b49dd3463d772be93cbacfb3cd6300e16a12b7b88dfa91dbe9701210319242444ce4326aa999a007f5ef5607988c612d3ac2c64ed195119de9d872ecdffffffff90e6b60d47efc9c9c4298af1e4c607c224ccf44fcba908684bd61b6614661108000000006a473044022064e0d11f43b5d651b0f29204aedbbe723371108fd370572173a0687c9a43fb5202202c7ae0bcf581fa7ed49468103fe8ff2ffc42c2679b5241e263ff697f67b7333e01210319242444ce4326aa999a007f5ef5607988c612d3ac2c64ed195119de9d872ecdffffffffadd3f70a3a0bd5be2bf8f2af2a844b9c52e9bd352fe249169156bd463828c25f020000006a473044022068afbe120a8bdb1179290dd3e5465da1b38b2ba2f87c78850ed923a7132e0c7d022016fbd9688b842fa5d8d7d0f9da66499a5a3800f56f8c2298f3ff3b17edd505a801210319242444ce4326aa999a007f5ef5607988c612d3ac2c64ed195119de9d872ecdffffffff54cfabb2e073580a268b35d67a18b6dd3d008902a105a32923b86a574e62c212030000006b483045022064da004654b1b68d248f8af8d965ead1dc8ec4a37e50b9d2f0f5845d292b92410221009526cd9698c25d0b7820381aa4fa6c54e91334184316cff090591c5007949e4101210319242444ce4326aa999a007f5ef5607988c612d3ac2c64ed195119de9d872ecdffffffff040000000000000000126a104f41010002e0cd9e90e6eb02a08d060058020000000000001976a914340d78fc9e8b37942987c32fd0988b90373c4cd188ac58020000000000001976a9141b6e18dcfecda241765b2709e99bca35ebdb2dba88acd86f0d00000000001976a9141b6e18dcfecda241765b2709e99bca35ebdb2dba88ac00000000",
  "txid": "b25ba9cb3a02e24dc53f6672a25fdc047d243cc442dda5e25d5d1590d9a66969",
  "version": 1,
  "locktime": 0,
  "vin": [
    {
      "txid": "a1e50af0bee4586e854336b67d3b2814f2681f953cd14d157b7a7d69a7eb034c",
      "vout": 0,
      "scriptSig": {
        "asm": "304502204568f92392d581c77bc7046187b120c951720e13c38232c965a6d24356d180b1022100933a6f6814c3195f8b088caac1844ce25cf18945ae41a2c337cc46fc9580e965[ALL] 0319242444ce4326aa999a007f5ef5607988c612d3ac2c64ed195119de9d872ecd",
        "hex": "48304502204568f92392d581c77bc7046187b120c951720e13c38232c965a6d24356d180b1022100933a6f6814c3195f8b088caac1844ce25cf18945ae41a2c337cc46fc9580e96501210319242444ce4326aa999a007f5ef5607988c612d3ac2c64ed195119de9d872ecd"
      },
      "sequence": 4294967295
    },
    {
      "txid": "c5d7a762c787212ab42d63fca70162a5aba97740eda7f73d52d04cef451a1329",
      "vout": 0,
      "scriptSig": {
        "asm": "304502205b170e3345f762317d9fb37c47a3f5d65ac04171ac447fb8ef1fd6860d510a27022100e283fd90daf6161128df6feb0e7cf98aa1a202770bcb2b66ce340198731d0b7c[ALL] 0319242444ce4326aa999a007f5ef5607988c612d3ac2c64ed195119de9d872ecd",
        "hex": "48304502205b170e3345f762317d9fb37c47a3f5d65ac04171ac447fb8ef1fd6860d510a27022100e283fd90daf6161128df6feb0e7cf98aa1a202770bcb2b66ce340198731d0b7c01210319242444ce4326aa999a007f5ef5607988c612d3ac2c64ed195119de9d872ecd"
      },
      "sequence": 4294967295
    },
    {
      "txid": "12c2624e576ab82329a305a10289003dddb6187ad6358b260a5873e0b2abcf54",
      "vout": 2,
      "scriptSig": {
        "asm": "3044022072a48973bb465c97d508a23c51fcf4e058bab5be63c2d905a0f8f011c620616a022076c32eca5693e7f2b07ef20e1d02706ecc4161ba8a3a4ea96e202175b9fc7909[ALL] 0319242444ce4326aa999a007f5ef5607988c612d3ac2c64ed195119de9d872ecd",
        "hex": "473044022072a48973bb465c97d508a23c51fcf4e058bab5be63c2d905a0f8f011c620616a022076c32eca5693e7f2b07ef20e1d02706ecc4161ba8a3a4ea96e202175b9fc790901210319242444ce4326aa999a007f5ef5607988c612d3ac2c64ed195119de9d872ecd"
      },
      "sequence": 4294967295
    },
    {
      "txid": "3cca1d543adf1334c25a51a96cc284b1040571375e409520f2e70620c2ba6f13",
      "vout": 2,
      "scriptSig": {
        "asm": "30440220089dbb5fd6fe46f93686f783a981d8317b6d7c0352419ff0a763741f296bbb8b022078d57445d2150789f96eee9697b06569d861b1ca789b9fd3bb69dde73e1daec3[ALL] 0319242444ce4326aa999a007f5ef5607988c612d3ac2c64ed195119de9d872ecd",
        "hex": "4730440220089dbb5fd6fe46f93686f783a981d8317b6d7c0352419ff0a763741f296bbb8b022078d57445d2150789f96eee9697b06569d861b1ca789b9fd3bb69dde73e1daec301210319242444ce4326aa999a007f5ef5607988c612d3ac2c64ed195119de9d872ecd"
      },
      "sequence": 4294967295
    },
    {
      "txid": "3dd26b5d608a75705f6ad53cffe455bc2a63e14e6ae3b51ce230acddbbb8bd20",
      "vout": 0,
      "scriptSig": {
        "asm": "304502200d8251350ceaf233cca02427373b91c4452bda24c03ea7b599cf5285f70dd0db022100f0469a37bb220f22ecef10ae71c09244fb783caaa6f991b168357cb5485893a1[ALL] 0319242444ce4326aa999a007f5ef5607988c612d3ac2c64ed195119de9d872ecd",
        "hex": "48304502200d8251350ceaf233cca02427373b91c4452bda24c03ea7b599cf5285f70dd0db022100f0469a37bb220f22ecef10ae71c09244fb783caaa6f991b168357cb5485893a101210319242444ce4326aa999a007f5ef5607988c612d3ac2c64ed195119de9d872ecd"
      },
      "sequence": 4294967295
    },
    {
      "txid": "b2929ae1d8bf099b2249f2b736c1abe63de9fc934956a6d7bfa7107d5753d35d",
      "vout": 0,
      "scriptSig": {
        "asm": "30460221008cbed25f10a33ffa4d99b02e60393e876fe4decf9af6cf20ceaad68bc8cf9bde022100bef30eeed8c96b49dd3463d772be93cbacfb3cd6300e16a12b7b88dfa91dbe97[ALL] 0319242444ce4326aa999a007f5ef5607988c612d3ac2c64ed195119de9d872ecd",
        "hex": "4930460221008cbed25f10a33ffa4d99b02e60393e876fe4decf9af6cf20ceaad68bc8cf9bde022100bef30eeed8c96b49dd3463d772be93cbacfb3cd6300e16a12b7b88dfa91dbe9701210319242444ce4326aa999a007f5ef5607988c612d3ac2c64ed195119de9d872ecd"
      },
      "sequence": 4294967295
    },
    {
      "txid": "08116614661bd64b6808a9cb4ff4cc24c207c6e4f18a29c4c9c9ef470db6e690",
      "vout": 0,
      "scriptSig": {
        "asm": "3044022064e0d11f43b5d651b0f29204aedbbe723371108fd370572173a0687c9a43fb5202202c7ae0bcf581fa7ed49468103fe8ff2ffc42c2679b5241e263ff697f67b7333e[ALL] 0319242444ce4326aa999a007f5ef5607988c612d3ac2c64ed195119de9d872ecd",
        "hex": "473044022064e0d11f43b5d651b0f29204aedbbe723371108fd370572173a0687c9a43fb5202202c7ae0bcf581fa7ed49468103fe8ff2ffc42c2679b5241e263ff697f67b7333e01210319242444ce4326aa999a007f5ef5607988c612d3ac2c64ed195119de9d872ecd"
      },
      "sequence": 4294967295
    },
    {
      "txid": "5fc2283846bd56911649e22f35bde9529c4b842aaff2f82bbed50b3a0af7d3ad",
      "vout": 2,
      "scriptSig": {
        "asm": "3044022068afbe120a8bdb1179290dd3e5465da1b38b2ba2f87c78850ed923a7132e0c7d022016fbd9688b842fa5d8d7d0f9da66499a5a3800f56f8c2298f3ff3b17edd505a8[ALL] 0319242444ce4326aa999a007f5ef5607988c612d3ac2c64ed195119de9d872ecd",
        "hex": "473044022068afbe120a8bdb1179290dd3e5465da1b38b2ba2f87c78850ed923a7132e0c7d022016fbd9688b842fa5d8d7d0f9da66499a5a3800f56f8c2298f3ff3b17edd505a801210319242444ce4326aa999a007f5ef5607988c612d3ac2c64ed195119de9d872ecd"
      },
      "sequence": 4294967295
    },
    {
      "txid": "12c2624e576ab82329a305a10289003dddb6187ad6358b260a5873e0b2abcf54",
      "vout": 3,
      "scriptSig": {
        "asm": "3045022064da004654b1b68d248f8af8d965ead1dc8ec4a37e50b9d2f0f5845d292b92410221009526cd9698c25d0b7820381aa4fa6c54e91334184316cff090591c5007949e41[ALL] 0319242444ce4326aa999a007f5ef5607988c612d3ac2c64ed195119de9d872ecd",
        "hex": "483045022064da004654b1b68d248f8af8d965ead1dc8ec4a37e50b9d2f0f5845d292b92410221009526cd9698c25d0b7820381aa4fa6c54e91334184316cff090591c5007949e4101210319242444ce4326aa999a007f5ef5607988c612d3ac2c64ed195119de9d872ecd"
      },
      "sequence": 4294967295
    }
  ],
  "vout": [
    {
      "value": 0.00000000,
      "n": 0,
      "scriptPubKey": {
        "asm": "OP_RETURN 4f41010002e0cd9e90e6eb02a08d0600",
        "hex": "6a104f41010002e0cd9e90e6eb02a08d0600",
        "type": "nulldata"
      }
    },
    {
      "value": 0.00000600,
      "n": 1,
      "scriptPubKey": {
        "asm": "OP_DUP OP_HASH160 340d78fc9e8b37942987c32fd0988b90373c4cd1 OP_EQUALVERIFY OP_CHECKSIG",
        "hex": "76a914340d78fc9e8b37942987c32fd0988b90373c4cd188ac",
        "reqSigs": 1,
        "type": "pubkeyhash",
        "addresses": [
          "15kEH4xJm3WFDkDpvGehcekV37f8HCJXND"
        ]
      }
    },
    {
      "value": 0.00000600,
      "n": 2,
      "scriptPubKey": {
        "asm": "OP_DUP OP_HASH160 1b6e18dcfecda241765b2709e99bca35ebdb2dba OP_EQUALVERIFY OP_CHECKSIG",
        "hex": "76a9141b6e18dcfecda241765b2709e99bca35ebdb2dba88ac",
        "reqSigs": 1,
        "type": "pubkeyhash",
        "addresses": [
          "13W38ryLUQvEQFdHDVbnn4s11f1dYsf5kD"
        ]
      }
    },
    {
      "value": 0.00880600,
      "n": 3,
      "scriptPubKey": {
        "asm": "OP_DUP OP_HASH160 1b6e18dcfecda241765b2709e99bca35ebdb2dba OP_EQUALVERIFY OP_CHECKSIG",
        "hex": "76a9141b6e18dcfecda241765b2709e99bca35ebdb2dba88ac",
        "reqSigs": 1,
        "type": "pubkeyhash",
        "addresses": [
          "13W38ryLUQvEQFdHDVbnn4s11f1dYsf5kD"
        ]
      }
    }
  ],
  "blockhash": "00000000000000000398481a93ba1d834aa293f33f9f75b674f7c2bac511fc56",
  "confirmations": 4376,
  "time": 1443533379,
  "blocktime": 1443533379
}
